:020000040800F2
:1000000018070020890100089101000893010008E9
:100010009501000897010008990100080000000000
:100020000000000000000000000000009B0100082C
:100030009D010008000000009F01000865210008E4
:10004000A3010008A3010008A3010008A301000800
:10005000A3010008A3010008A3010008A3010008F0
:10006000A3010008A3010008A3010008A3010008E0
:10007000A3010008A3010008A3010008A3010008D0
:10008000A3010008A3010008A3010008A3010008C0
:10009000A3010008A3010008A30100081D03000834
:1000A000A3010008A3010008A3010008A3010008A0
:1000B000A3010008A3010008A3010008DD10000847
:1000C000D1100008A3010008A3010008A301000843
:1000D000A3010008A3010008A3010008A301000870
:1000E000A3010008A3010008A301000800F002F822
:1000F00000F03AF80AA090E8000C82448344AAF188
:100100000107DA4501D100F02FF8AFF2090EBAE885
:100110000F0013F0010F18BFFB1A43F0010318473B
:100120002C2600004C260000103A24BF78C878C165
:10013000FAD8520724BF30C830C144BF04680C60ED
:10014000704700000023002400250026103A28BF35
:1001500078C1FBD8520728BF30C148BF0B60704739
:100160001FB51FBD10B510BD00F031F81146FFF7E7
:10017000F7FF02F05BF800F04FF803B4FFF7F2FF6F
:1001800003BC00F057F800000948804709480047C1
:10019000FEE7FEE7FEE7FEE7FEE7FEE7FEE7FEE737
:1001A000FEE7FEE704480549054A064B7047000094
:1001B00009220008ED00000818010020180700209F
:1001C00018030020180300207047704770477546D9
:1001D00000F02CF8AE4605006946534620F00700B3
:1001E000854618B020B5FFF7DDFFBDE820404FF091
:1001F00000064FF000074FF000084FF0000B21F011
:100200000701AC46ACE8C009ACE8C009ACE8C009DD
:10021000ACE8C0098D46704710B50446AFF30080C6
:100220002046BDE81040FFF7A8BF00000048704717
:10023000B400002001491820ABBEFEE726000200F2
:10024000704700002DE9F0411D4A0746111F081FA5
:1002500001F074FE1B4C002004EB8001496844F857
:100260002010401C0928F7DB154E103ED6E902018C
:1002700001F0F6FF316901F0F3FF80466062D6F8C5
:100280001800002554F8251001F0EAFF6D1C0A2D16
:10029000F8DB0D4902F052F80C4A0146B061904279
:1002A0000BDD404602F0A3F907D2206AB16902F0E3
:1002B0001FF902D23868401C3860BDE8F0810000A8
:1002C000100000208C000020000020410088104712
:1002D00070B50F4C0F4E00250D4A1032111F081F2C
:1002E00001F02CFED4E9020101F0BAFF216901F00E
:1002F000B7FF46F825000146A06901F0B1FF6D1C6B
:10030000A0610A2DE8DB044902F018F8A06170BD75
:10031000000000208C0000200000204110B54FF4A8
:10032000807000F0D7F8BDE810404FF4007000F086
:10033000D1B872B642F2B824204601F09DFEFBE728
:100340007FB51C4800250395816941F00401816156
:10035000816941F0080181614FF4407000901648B6
:1003600001900120154C02906946204600F0BEF82D
:1003700000220121172000F055FE172000F044FE56
:1003800020682560206840F0113020600C4801682A
:1003900021F47F410160016841F488510160001F30
:1003A000016801F0FF210160016841F01111016055
:1003B0007FBD000000100240000021100008014035
:1003C000040C014010B590F821100024022903D03C
:1003D0000421816301243DE001680A6822F00E02D5
:1003E0000A6001680A6822F001020A601A4A01687C
:1003F000914201D1012121E0174A1432914201D1E9
:1004000010211BE0144A2832914201D1891515E0D0
:10041000114A3C32914201D189140FE00E4A503208
:10042000914202D14FF4803108E00B4A643291428C
:1004300002D14FF4801101E04FF08071064A083A72
:100440005160012180F82110002180F82010416BBB
:1004500001B18847204610BD0800024090F82100F5
:100460007047000070B5044600F030F90546601C86
:1004700002D004480078044400F028F9401BA04250
:10048000FAD370BD2800002000221049B0F5807F0B
:1004900005D0B0F5007F01D14A614A6270470C482F
:1004A0000B6A6BB10A62016821F480610160016826
:1004B00041F480610160016821F4006101607047CE
:1004C00001220A62016821F48061F7E70000002040
:1004D0000C0C0140044910B50A68024202D00860C1
:1004E000FFF7D2FF10BD0000140401402DE9F84FC2
:1004F000DFF8B8910024A9F1040B23460F2709F176
:10050000040AABF1040EC9E00125A5402A40AA4225
:100510007DD1674ED1F804C0ACEB0608B44532D0AB
:1005200014DCBCF1030F3AD009DCBCF1000F2AD077
:10053000BCF1010F1CD0BCF1020F31D11DE0BCF1A8
:10054000110F17D0BCF1120F2AD119E0B8F5881F8E
:1005500019D006DCB8F5803F15D0B8F5801F1FD143
:1005600011E0B8F5001F0ED0B8F5041F18D10AE04D
:10057000CB6815E0CB681B1D12E0CB6808330FE099
:10058000CB680C330CE08B682BB1012B4FF00803C8
:1005900003D0456104E0042302E0056100E000238C
:1005A000FF2A01D8064601E000F104064FEA84055F
:1005B00001D9A5F12005D6F8008007FA05FC28EA44
:1005C0000C0803FA05F548EA0508C6F800804D68EE
:1005D000ED0062D5374DAE6946F00106AE61AD69FA
:1005E00024F0030605F001050095334D06EB050CDC
:1005F000DCF80850A607360F07FA06F825EA0805C2
:10060000DFF8B880404503D14FF0000817E044E020
:10061000DFF8AC80404502D14FF001080FE0DFF871
:10062000A480404502D14FF0020808E0DFF898802E
:10063000404502D14FF0030801E04FF0040808FAEA
:1006400006F848EA0508CCF808804D68D9F800603B
:10065000ED024D4601D5164300E096432E604D68ED
:10066000DAF80060AD02554601D5164300E0964326
:100670002E604D68DBF80060AD035D4601D5164382
:1006800000E096432E604D68DEF80060ED0375468D
:1006900001D5164300E096432E60641C0D682A467F
:1006A000E5407FF431AFBDE8F88F00000804014059
:1006B000000011100010024000000140000801403D
:1006C000000C014000100140001401400148806806
:1006D0007047000028000020704770472DE9F04166
:1006E000016804464A694E6890F83E000025D743E9
:1006F000FA050BD4F243D20508D46FF480720125B9
:100700004A6121680A6842F400420A60B90508D4C7
:10071000F143C90505D422686FF4007145F0020564
:100720005161790525D4F143C90522D4638D94F82C
:100730003D10226B202808D13BB9212910D029294E
:100740000ED0282901D1212A0AD022686FF48061B5
:10075000516145F00405102806D0402804D008E077
:10076000204601F0BFF904E02068016841F40071FF
:100770000160380508D4F043C00505D421686FF442
:10078000006045F008054861002D07D0206C284323
:1007900020642046BDE8F04100F02ABDBDE8F081AC
:1007A0002DE9F047026800215368C66A90F83E4080
:1007B00090F83D50102C12D0402C10D0046C002C1E
:1007C0007DD05469E443A6077AD4DE43B60577D4D6
:1007D000036C03B19169BDE8F04701F05FB9976917
:1007E00051694FF42A0CC9435FEAC1784FF02A4996
:1007F00004D066452AD04E4528D010E0DE43B60529
:100800000DD4C16A614501D1012103E0C16A4945A6
:1008100001D10821C162BDE8F04700F0D3BF0E0747
:1008200016D4DE43B60513D4416CC9B21161416BD5
:1008300009B1896A29B9816B002907D0896A002921
:1008400004D00068416841F400614160BDE8F08770
:100850008E0706D4DE43B60503D4BDE8F04700F0AA
:1008600005BFFE43526876074FEA02521DD4002AA4
:10087000ECDB0A0608D4DA43520505D4490705D54E
:10088000BDE8F04700F096BE4907DFD4D94389059B
:10089000DCD4212D05D0402CD8D1BDE8F04700F0A4
:1008A000D7BFBDE8F04700F043BE002ACEDB4A06C2
:1008B0000BD4DA43520508D4490708D501E00DE00E
:1008C0000EE0BDE8F04700F0BFBD4907BED4D943F4
:1008D0008905BBD4BDE8F04700F04DBD916970E7D4
:1008E000E10606D4D943890503D4BDE8F04701F0F9
:1008F00041B92821212D27D0292D25D0650655D491
:10090000DD436D0552D4640752D590F83D30448DD7
:10091000002C9BD01269446A2270426A521C4262C7
:10092000428D521E4285428D002A8FD12A2B8DD1B5
:100930000268536823F4806353602222026380F8C4
:100940003D1000F00FFB81E7250623D4DD436D0544
:1009500020D4640720D590F83D30448D002CF2D08F
:10096000446A24781461426A521C4262428D521ECB
:100970004285428D002AE6D1292BE4D102685368D2
:1009800023F4806353602122026380F83D1000F05D
:10099000EAFA5BE76107D6D4D9438905D3D4418D00
:1009A0000029D0D0416A097811610AE06107CAD4F0
:1009B000D9438905C7D4418D0029C4D01169426A41
:1009C0001170416A491C4162418D491E41853DE7D4
:1009D0007047000070B5040025D094F83D00002554
:1009E00020B984F83C50204600F07EFA242084F898
:1009F0003D002068016821F0010101602068016864
:100A000041F4004101602068016821F40041016067
:100A100000F03AFB4D4A6168914201D84C4900E030
:100A20004C49884201D2012070BD4B492368B0FB7C
:100A3000F1F15E6826F03F060E435E606368934204
:100A400006D94FF4967359434FF47A73B1FBF3F11F
:100A50002368491C1E6A26F03F063143196261680B
:100A6000914210D84900401EB0FBF1F2521CC2F373
:100A70000B02042A01D2042022E0B0FBF1F0401C5A
:100A8000C0F30B001CE0A268F2B301EBC10303EB5F
:100A90000116431EB3FBF6F35B1C43F480431B05B6
:100AA00049D092B301EBC10202EB0111401EB0FB31
:100AB000F1F0401CC0F30B0040F4804040F40040D3
:100AC0002168CA694CF6FF739A431043C861D4E9A0
:100AD000071001432068026822F0C0021143016040
:100AE000D4E9030101432068826848F2FF339A4346
:100AF00011438160D4E9050108432168CA6822F0E6
:100B0000FF021043C86001E00EE016E020680168B3
:100B100041F0010101602564202084F83D00256337
:100B200084F83E50002070BD01EB4106431EB3FB2C
:100B3000F6F35B1CB3E70120C2E701EB4101401E65
:100B4000B0FBF1F0401CC0F30B00B7E7A08601003A
:100B500080841E0000093D0040420F00704770472E
:100B600070477047704700002DE9FF4F83B00025A4
:100B7000DDE910799A4693460446DDF848800095F1
:100B8000FFF7A4FD064694F83D0020287CD11923E8
:100B9000012285492046009601F0C6F80028F5D1CB
:100BA00094F83C0001286FD0012084F83C002068B4
:100BB0000168C90703D1016841F0010101602068A3
:100BC000016821F400610160222084F83D0040208A
:100BD00084F83E0025646762A4F82A90608D208521
:100BE0007248E062CDE9008653465A462046049991
:100BF00000F082FE00287DD1208DDFF8B4912027FF
:100C000068B1012814D00228206801681ED041F480
:100C1000806101602068416980690090B6E02068C9
:100C2000416981690091016841F400710160ADE0A2
:100C30002068016821F48061016072B62068416912
:100C400081690091016841F400710AE041F400619A
:100C5000016072B62068416981690091016821F4E0
:100C60008061016062B691E0032868D801280CD049
:100C7000022843464FF000024946204600960FD016
:100C800001F052F8B0BB10E08BE0324641462046FE
:100C900001F0F0F870BB20680069616A08706CE0D0
:100CA00001F042F830BB72B634E02068016821F4EC
:100CB0008061016072B620680069616A0870606ACC
:100CC000401C6062208D401E2085608D401E608526
:100CD000384846F2A8110068B0FBF1F0C0EBC00044
:100CE00000EB80000090401E009008D02068406912
:100CF000C04300E029E040070CD50098F3E744F832
:100D0000305F6773A573206940F02000206162B6F0
:100D100025731AE02068016841F4007101602068C1
:100D20000069616A0870606A401C6062218D491E1A
:100D30002185618D491E618562B621681BE03246BE
:100D40004146204601F096F818B1012007B0BDE8F1
:100D5000F08F20680069616A0870606A401C6062F8
:100D6000218D491E2185618D491E618521684A6951
:100D7000D24352070AD409690170606A401C60625C
:100D8000208D401E2085608D401E6085208D0028AE
:100D90007FF46AAF84F83D7084F83E5084F83C508C
:100DA000D4E70220D2E70000020010000000FFFF9D
:100DB00004000100340000202DE9FF4F83B09A4663
:100DC000DDE9119793460446DDF84080FFF77EFC8D
:100DD000054694F83D0020287FD11923012240497F
:100DE0002046009500F0A0FF002876D194F83C0042
:100DF000012872D0012084F83C0020680168C907EE
:100E000003D1016841F0010101602068016821F40B
:100E100000610160212084F83D00402084F83E00FC
:100E200000262664C4F82480A4F82A90608D2085CA
:100E30002C48E062CDE9007553465A462046049995
:100E400000F0D8FD70B930E02A463946204601F05E
:100E500049F858B1206C042804D12068016841F495
:100E600000710160012007B0BDE8F08F606A216861
:100E700000780861606A401C6062218D491E89B259
:100E80002185628D521E628522685369DB435B07B0
:100E90000BD469B100781061606A401C6062208DDB
:100EA000401E2085608D401E6085208D0028CBD19E
:100EB0002A463946204600F00BFF0028CAD154F8D4
:100EC0003D0B016841F400710160202004F81E0907
:100ED000E67766770020C6E7FFE70220C3E7000059
:100EE000020010000000FFFF10B586B00021009145
:100EF0000191029103910068174988422AD1174C49
:100F0000A06940F00800A061A069694600F00800EF
:100F10000490C020009012200190032003901048FC
:100F2000FFF7E4FAE06940F40010E061E0690022B4
:100F300000F40010049011461F2000F073F81F20E9
:100F400000F062F800221146202000F06BF820200B
:100F500000F05AF806B010BD0054004000100240E6
:100F6000000C014070477047074810B5016841F018
:100F700010010160032000F075F80F2000F006F862
:100F800000F024F8002010BD0020024070B50D4D87
:100F900004464FF47A712878B1FBF0F00A490968E9
:100FA000B1FBF0F000F080F848B9102C07D2002215
:100FB0002146501E00F036F800206C6070BD012004
:100FC00070BD000028000020340000200C4808B547
:100FD000816941F001018161816901F001010091A4
:100FE000C16941F08051C161C06900F0805000903A
:100FF0000448416821F0E06141F00071416008BDA2
:101000000010024000000140002809DB00F01F0230
:10101000012191404009800000F1E020C0F800115A
:1010200070470000F0B40E4B1B680C46C3F302235C
:10103000C3F10705042D00D90425191D072901D284
:10104000002300E0DB1E012606FA05F1491E2140BF
:1010500099409E40761E16403143F0BC01F0D5B851
:101060000CED00E0064900F0070208684FF6FF03A8
:10107000184040EA0220034A10430860704700000D
:101080000CED00E00000FA050448054900684968D5
:10109000044AC1F30221515CC8407047340000206B
:1010A000001002404427000810B5401EB0F1807FB8
:1010B00001D3012010BD4FF0E02460610F216017C3
:1010C00001F0A3F80020A06107202061002010BDDE
:1010D0000148FFF703BB0000380000200148FFF77C
:1010E0005FBB0000380000200C4810B50A490160C1
:1010F0000B49416000214FF480428160C0E9031236
:1011000041618161C1610162FFF764FC002801D087
:10111000FFF70FF910BD0000005400403800002018
:10112000801A060038B5406A002190F83D202B4B0C
:1011300046F2A8141B68B3FBF4F3C3EBC30303EB41
:10114000830300933BB15B1E009303681B689B0500
:1011500005D5009BF6E7036C43F020030364436B63
:1011600003B19962836B03B1996203681C6824F42C
:1011700080641C604185436B03B15963836B03B189
:10118000596303681C6824F001041C6090F83D401A
:101190002023602C0BD0282434EA02020FD080F8E0
:1011A0003D3080F83E1000BFFFF712FC38BD80F8DC
:1011B0003D3080F83E100164FFF78EFA38BD0268BA
:1011C000136843F0010313600268136843F48063FB
:1011D0001360016380F83D40E6E700003400002022
:1011E00000684169C943090601D4002101617047C3
:1011F00070B5044690F83D0094F83E10102901D0D7
:10120000402906D1222804D121680A6822F400620C
:101210000A60282131EA00024FF000054FF0200655
:1012200026D021684968090505D4602803D084F8D0
:101230003D6084F83E50256320684168090537D534
:10124000416821F400614160606B90F821203C49C5
:10125000012A11D04163606BFFF7B4F838B32068FE
:10126000016821F00101016084F83D60606B1CE0C1
:10127000256384F83D10DFE7A06B4163A06BFFF7A7
:10128000A1F8A0B120684169C943490605D40069A5
:10129000616A0870606A401C60622068016821F021
:1012A0000101016084F83D60A06B416B884710E04C
:1012B00094F83D10602910D04169C943490605D40E
:1012C0000069616A0870606A401C60622046FFF72E
:1012D0007FFB206CC1071CD115E084F83D602564BC
:1012E0004169C943490605D40069616A0870606AAA
:1012F000401C60622068016821F001010160204605
:10130000FFF7EAF9E5E7810703D4410701D40007B5
:1013100004D52068416821F4E061416094F83D0003
:10132000216C49070BD5282809D10648E0622563BE
:1013300084F83D6084F83E502046FFF70FFC70BDF6
:10134000251100080000FFFF01684A69D2435205D9
:101350000FD46FF480624A61002140F8301F2022D0
:1013600042738173026942F0040202610173012039
:1013700070470020704710B5C26A438D0168042B86
:1013800006D0438D032B08D0438D022B1DD012E0D5
:101390004A6822F480624A600CE04B6823F4806360
:1013A0004B60042A06D0022A04D001680A6822F49D
:1013B00080620A6001680969426A1170416A491CC9
:1013C0004162418D491E418510BD012A30D0102A4D
:1013D0002ED0042A30D0022A2ED00A6842F400729D
:1013E0000A6001680969426A1170416A491C4162D8
:1013F000428D521E4285026812690A70416A491C78
:101400004162418D491E418501684A6822F440725B
:101410004A60202180F83D1090F83E200021402AAB
:1014200080F83E100CD012210163FFF798FB10BD2D
:101430000A6822F48062D3E70A6842F48062CFE748
:101440000163FFF78EFB10BD38B590F83D102229DF
:101450000FD1418D03290DD901680969426A1170C4
:10146000416A491C4162418D491E4185418D0329D4
:1014700006D038BDC26A022A02D0012906D029B19D
:101480000068416821F48061416038BD274946F217
:10149000A81300220968B1FBF3F101EB810100916F
:1014A00001682023009C641E009422D00C68A405CF
:1014B000F8D40C6824F480640C6001684C6824F44F
:1014C000E0644C6001680969446A2170416A491C02
:1014D0004162418D491E418580F83D3090F83E10B3
:1014E00080F83E2040291DD012210163FFF737FB11
:1014F00038BD046C44F0200404644C6824F4E064B7
:101500004C6001680969446A2170416A491C416262
:10151000418D491E418580F83D3080F83E20FFF71F
:1015200057FA38BD0263FFF71CFB38BD34000020BA
:1015300010B5C26A90F83D1021290BD1418D51B1EF
:10154000416A026809781161416A491C4162418D12
:10155000491E418510BD20230021082A13D0202ACE
:1015600011D012F5803F0ED00268546824F4E06474
:1015700054601122026380F83E1080F83D3000BFB5
:10158000FFF7EEFA10BD0268546824F4E06454607A
:101590000268146844F400741460016380F83D30FC
:1015A00090F83E2080F83E10402AE9D1FFF7DAFAA1
:1015B00010BD000010B590F83D1090F83E30C26AA2
:1015C000048DB4B1212903D0402B11D122290FD190
:1015D000418DE1B390F83E10402942D0416A026843
:1015E00009781161416A491C4162418D491E41855A
:1015F00010BD2129E8D120230021082A13D0202A58
:1016000011D012F5803F0ED00268546824F4E064D3
:1016100054601122026380F83E1080F83D3000BF14
:10162000FFF79EFA10BD0268546824F4E064546029
:101630000268146844F400741460016380F83D305B
:1016400090F83E2080F83E10402AE9D100E002E008
:10165000FFF788FA10BD0068416821F4806141609D
:1016600010BDBDE8104000F0F3B8000078B590F868
:101670003E50C26A046B90F83D6000230168222E40
:1016800073D1066D0EB9402D6FD0056D1DB905697A
:10169000B5F5404F1BD0458D95B3468D484D012E75
:1016A00020D0448D022C4DD00C6844F480640C6032
:1016B00001684C68240579D5AA4273D0012A71D0FB
:1016C000082A6FD0102A6DD0202A6BD06EE04A69AC
:1016D0008A6900920A6842F480720A60016D491CAE
:1016E000016578BDAA4214D10A6822F480620A60BA
:1016F00001684A68120504D50A6822F4806217E07E
:10170000FFE74A698A6900920A6842F400720A6037
:1017100050E0082A10D0202A0ED0122C0AD0042A19
:1017200003D0022A01D0102AE6D10A6842F480626E
:101730000A603BE0012ADFD00A6822F480620A6076
:101740000168DEE7042A11D0022A0FD0102A0DD03A
:101750000C6844F400640C6001684C698C69009466
:101760000C6824F480640C6008E025E00C6844F404
:1017700080640C6001684C698969009101684C685B
:10178000240517D5AA4207D0012A05D0082A03D07C
:10179000102A01D0202A0DD14A6842F480524A60B2
:1017A00008E0FFE74A6842F480524A6001684A69EB
:1017B00089690091036578BD48698869009078BDA2
:1017C0000000FFFF90F83E10402910D00169B1F5EC
:1017D000804F19D0016DA9B3016D012910D1416C61
:1017E0005FF0F10201F4407142EAD11106E0016DAF
:1017F0000029416C05D0C9B241F0010100680161C6
:10180000704701F0FE01F9E790F83D102129416C85
:1018100009D0C9B241F0010102681161416B29B1DF
:10182000896A49B902E001F0FE01F5E7816B002900
:10183000E6D0896A0029E3D00068416841F400617C
:1018400041607047FFE7416CF02201F44071CBE743
:1018500010B590F83D10026D4AB1026D012A14D006
:10186000026D022A16D0BDE81040FFF7B9BCC16C6A
:101870000129816C02D0C1F3072108E00268C9B2D6
:101880001161016D891C016510BD816CC9B20268CE
:10189000116123E022291CD0428D0AB1212920D0D8
:1018A000428D002AF0D12129EED101684A6822F444
:1018B000E0624A6001680A6842F400720A6000212E
:1018C0000163202280F83D2080F83E10FFF74AF99E
:1018D00010BD01680A6842F480720A60016D491CFB
:1018E000D1E7416A026809781161416A491C416285
:1018F000418D491E418510BD2DE9F84F0446006811
:1019000089460B9D01689846174641F48061016045
:101910002068016841F48071016000954FF0011B5F
:101920000022594620460A9B00F0FEF94FF4007A47
:1019300040B120680068C00501D5C4F840A003206C
:10194000BDE8F88F216809F0FE0008612B462849A0
:1019500020460A9A00F030FAF0BB2068416980699D
:1019600000902A4620460A9900F0BCFA40B1206C4B
:1019700004283AD12068016841F40071016034E024
:10198000FEB2B8F1010F09D02168380A08612A4671
:1019900020460A9900F0A6FA0028E8D120680661DE
:1019A0002A4620460A9900F09DFA0028DFD12068D7
:1019B000016841F48071016000950022594620467B
:1019C0000A9B00F0B1F90028B3D1216809F0FF00AB
:1019D00040F00100086100E007E02B460449204682
:1019E0000A9A00F0E9F90028AAD00120A8E700002F
:1019F000020001002DE9F843044600680D46DDE9C8
:101A0000089701689846164641F4807101604B467C
:101A100000224FF001112046009700F085F948B1EF
:101A200020680068C00502D54FF4007020640320D0
:101A3000BDE8F883216805F0FE0008613B464A4690
:101A40001549204600F0B8F988B9206841698069D5
:101A500000903A464946204600F044FA48B1206CCE
:101A6000042804D12068016841F40071016001205C
:101A7000DEE7F5B2B8F1010F09D02168300A08613C
:101A80003A464946204600F02DFA0028E7D1206862
:101A900005610020CCE700000200010038B50C46CB
:101AA00090F83D2000212825954302680B4605D07B
:101AB00051699169009180F83C3038BD556825F432
:101AC00080655560E243540700D50121120601D517
:101AD000828900E0028B80F83C3092B2FEF7FDFD77
:101AE00038BD00002DE9F04190F83D300446C26A4F
:101AF000002120261E4F00686FF48065082A01D05F
:101B0000202A01D1282B04D0212B17D04561BDE814
:101B1000F081E762426822F4E06242602068456139
:101B20002068026822F480620260216384F83D60CC
:101B300084F83E102046FFF711F8E8E7E76221221B
:101B4000226384F83D6084F83E10416821F4E0612E
:101B50004160206845612068016821F4806101606E
:101B60002046FFF73DFB2046FFF7FDF9CFE70000D9
:101B70000000FFFFF8B590F83D600446006841683A
:101B800021F4E0614160206800254169009101680D
:101B900041F0010101602068016821F48061016069
:101BA00020684168090520D5474F222E48D02A2EAB
:101BB00046D0616B096849686185618D19B1216CF6
:101BC00041F004012164416821F400614160606BCF
:101BD000FEF744FC012808D0606B4763606BFEF79A
:101BE000F1FB10B1606B416B8847608D08B32068D2
:101BF0004169C943490708D40069616A0870606A8D
:101C0000401C6062608D401E608520684169C94348
:101C1000490608D40069616A0870606A401C606205
:101C2000608D401E6085608D18B1206C40F004000E
:101C30002064206C00B32046BDE8F840FFF7D8BA16
:101C4000A16B096849686185618D19B1216C41F00A
:101C500004012164416821F400614160A06BFEF73A
:101C6000FDFB0128C1D0A06B4763A06BFEF7AAFB68
:101C70000028BAD0A06BB6E72A2E06D1256328200B
:101C800084F83D002046FFF76DF994F83D102020C0
:101C900028290DD0216B222901D0222E07D12563BE
:101CA00084F83D0084F83E502046FFF75BF9F8BD0C
:101CB0000649E162256384F83D0084F83E502046E1
:101CC000FEF74CFFF8BD0000251100080000FFFFE3
:101CD00070B516460D4604461EE02046FFF734FB5D
:101CE00008B1012070BD681C16D0FEF7EFFC801B08
:101CF000A84200D885B920684069C04340070BD589
:101D0000002044F8300F20216173A073216941F055
:101D1000200121612073E4E720684069C043400747
:101D2000DBD4002070BD00002DE9F047984617462F
:101D30000D460446C1F30746DDF820902AE000BFB7
:101D4000B8F1FF3F26D0FEF7C1FCA0EB09014145E9
:101D500002D8B8F1000F1DD12068012E16D080697D
:101D600025EA00000004000C12D00020B84211D176
:101D7000002044F8300F20216173A073216941F0E5
:101D80002001216120730120BDE8F0874069E7E769
:101D90000120EBE72068012E0AD0806925EA0000C7
:101DA0000004000C06D00020B842C9D00020EBE7A8
:101DB0004069F3E70120F7E72DE9F047984616461A
:101DC0000D4604464FF000094FF0200AC1F30747C3
:101DD00023E020684069C043400515D420680168AD
:101DE00041F40071016021686FF480604861C4F8BB
:101DF000309084F83DA084F83E90216C41F00401BD
:101E0000216484F83C9021E0701C06D0FEF75EFC53
:101E1000A0EB0800B04203D816B1012F1FD021E07B
:101E20002068012F15D0806925EA00000004000C0D
:101E300018D000BF44F8309F84F80DA084F80E90AD
:101E4000216941F02001216184F80C900120BDE856
:101E5000F087406925EA00000004000CEAD1206800
:101E6000406901E02068806925EA00000004000C58
:101E7000AFD1ECE72DE9F041002590460E4604462F
:101E8000202728E04069C043C0060CD454F8301B1A
:101E90006FF01000486144F810596777A577206A01
:101EA0002062257714E0FEF711FCA0EB0800B04299
:101EB00000D886B920684069C04340060BD544F875
:101EC000305F6773A573206940F02000206125739F
:101ED0000120BDE8F08120684169C9434906D1D499
:101EE0000020F6E770B516460D4604461EE0204673
:101EF000FFF72AFA08B1012070BD681C16D0FEF762
:101F0000E5FB801BA84200D885B920684069C04322
:101F100000060BD5002044F8300F20216173A07318
:101F2000216941F0200121612073E4E720684069C4
:101F3000C0430006DBD4002070BD00002DE9F04F47
:101F400085B016460F4680464FF47A72062103A8E4
:101F50008DE8070001233B22D0212248FEF704FE32
:101F6000BDF80C0040BA01B21F4889460180BDF897
:101F70000E1049BA0DB24580BDF8101049BA0CB226
:101F80008480484600F09CFA8346C8F80000284642
:101F900000F096FA00903860204600F091FA8246F0
:101FA0003060B9F1000F06DAC9F1000000F088FADC
:101FB000C8F8000001E0C8F800B0002D03DA68425C
:101FC00000F07EFA00E000983860002C06DA6042EB
:101FD00000F076FA306005B0BDE8F08FC6F800A0DA
:101FE000F9E700003800002000000020F0B585B0BF
:101FF000012504A8CDE900054FF47A742B4675221B
:10200000D02102941B48FEF7AFFD9DF81000682810
:102010002ED1002703AE8DF80C700096CDE9015447
:1020200001236B22D0211348FEF7C6FE07208DF84E
:102030000C000096CDE9015401231922D0210D484E
:10204000FEF7BAFE8DF80C700096CDE9015401231D
:102050001C22D0210748FEF7AFFE8DF80C700096C9
:10206000CDE9015401231B22D0210248FEF7A4FE32
:1020700005B0F0BD380000204FF47A71B0FBF1F1EB
:10208000CAB22DE9F0476421B0FBF1F30A21B3FB9A
:10209000F1F401FB1439B0FBF1F4B4FBF1F301FBF3
:1020A0001348B0FBF1F32C4C01FB1307206820F020
:1020B000FF002060294D286820F0FF002860286874
:1020C00040F0010028602068254EB15C60EA010004
:1020D00020600220FEF7C6F9206820F0FF00206093
:1020E000286820F0FF002860286840F0020028607F
:1020F000206816F8091060EA010020600220FEF74F
:10210000B1F9206820F0FF002060286820F0FF006F
:102110002860286840F010002860206816F8081031
:1021200060EA010020600220FEF79CF9206820F0A0
:10213000FF002060286820F0FF002860286840F039
:10214000200028602068F15D60EA01002060BDE8A1
:10215000F0470220FEF786B90C0801400C0C014044
:102160003A27000810480168104A127811440160AB
:102170000F48C169491CC161B1F57A7F13D10021B3
:10218000C161416A491C4162006A01280BD10948BA
:1021900001680905016821F4006103D40160016848
:1021A00041F40061016070473000002028000020E9
:1021B000000000200C0C01401248016841F00101B0
:1021C000016001688907FCD5416821F00301416085
:1021D00041684160416811F00C0FFBD1416821F06A
:1021E000F001416041684160416821F4E061416073
:1021F00041684160416821F460514160416841603B
:10220000704700000010024070470907090E0028BF
:1022100004DB00F1E02080F80014704700F00F00AC
:1022200000F1E02080F8141D70470000FEF79CFECE
:10223000FFF7C2FFFEF784F8FEF756FFFFF7D6FE62
:10224000FEF746F8054C206A012803D103481430F4
:10225000FDF7F8FF6069FFF70FFFF4E700000020CB
:1022600090EA010F48BF81F0004100F1F881421A65
:102270003CBF801A89184FEAD0524FF07F4C1CEABD
:10228000410FA2EBD15318BF9CEA026F00F03B80D4
:102290004FF0004C4CEA00204CEA012121FA03FCEB
:1022A00010EB0C0C1ED202F1FF325FEA1C2040EB57
:1022B000C25038BF70471CF07F0F4FEA400C18BF68
:1022C000BCF17F4F38BF7047C3F12003994008BF6E
:1022D00020F00100BCF17F4F38BF7047A0F1C04033
:1022E00000F080B94FEA3C00000A40EBC25028BF22
:1022F0001CF0FF0F4FEA400CE6D018BFBCF17F4F37
:1023000038BF7047EAE79CEA026F05D010EA5C0F1D
:1023100008BF00F00040704710B500F01DF900BF85
:1023200064FBBE3E401058BFC0F14040491058BF4A
:10233000C1F140418142EFF3008070474FF47F0CC0
:102340001CEAD0121EBF1CEAD11392EA0C0F93EACA
:102350000C0F00F0858090EA010F48BF42F48072B4
:1023600040F4000C41F400002CF07F4120F07F404D
:1023700000B58142A2EB03020FF2081CACEB504EF9
:10238000C0F100009EF800E04FEA4E0E00FB0EFC8C
:1023900038BF49004FEA2C1C02F5FA020CFB0EF381
:1023A0004FEACE1E4FEA112C4FEAC1210EEB635EBD
:1023B00042EB22420EFB0CFC4FEA1C5300FB0311C4
:1023C0004FEA112C4FEA01310EFB0CFC4FEADC4CBA
:1023D00000FB0C11C14228BF09184CEB03335DF818
:1023E00004EB10EB410143EBC250B2F57C0F38BF58
:1023F000704729D512F0F00F1CBF00F1C04000F06B
:1024000000407047008182838485868788898B8C11
:102410008D8E8F919293959697999A9C9D9FA0A24D
:10242000A3A5A7A8AAACAEB0B2B3B5B7B9BCBEC09D
:10243000C2C5C7C9CCCED1D4D7D9DCDFE2E6E9EC3E
:10244000F0F3F7FAFE0000004FEA400C0CF1807C3C
:10245000BCF17E4F28BF7047B0F1C04000F0C2B859
:1024600090EA010F0CEAD11348BF42F48072624532
:1024700038BF634507D213F47F0F16D080EA0100FE
:1024800000F00040704710B500F066F8097EFC3E91
:1024900000F005B880EA010000F00040704780EAD3
:1024A000010000F0004000F09DB812F47F0F04BF5F
:1024B0000248704780EA010000F094B80000C07F35
:1024C00010F0004148BF4042B0FA80F310FA03F226
:1024D000C3F19D030BD051EAC35101EB1220530607
:1024E00038BF704700F1010008BF20F001007047BD
:1024F00050EA010C00F113801CF5000F58BFBCF529
:10250000000F01D48842704707D710F5000F58BF5D
:1025100011F5000F15D488427047894270471CF5A9
:10252000000F04D5BCF5000FF7D5814270474FF07E
:10253000807C1CEB400F38BF1CEB410F01D2814265
:10254000704710B500F008F8922449004FF0005091
:102550004FF08051FFF7E6BE0EF1020E2EF0030E93
:102560005EF8044B244204D44FEA4102B2F17F4F9B
:1025700011D84FEA4003B3F17F4F0CD80ED14FEA88
:10258000D07CB2F17F4F0CEB4C0C0CF1020C08BF6D
:102590004CEBD17C04E04FF0080C01E04FEAD17C19
:1025A0000CEB4C0324FA03F404F00704B4F1040C1C
:1025B00006D20EEB840CBDE810404CF0010C6047D5
:1025C000DFE80CF0070802024FF00040A0F58000A1
:1025D00010BD0846420018BFD2F1807288BF00F0DB
:1025E000004010BDFF2141EAD050C005704751EABC
:1025F000000C00F113801CF5000F58BFBCF5000F54
:1026000001D48142704707D711F5000F58BF10F56C
:10261000000F15D481427047894270471CF5000FA6
:1026200004D5BCF5000FF7D5884270474FF0807C89
:102630001CEB410F38BF1CEB400F01D288427047A2
:1026400080EA010081EA000180EA0100FFF779BF1A
:1026500090EA010F48BF81F000413FF508AE421AF1
:1026600004D882F00042A0EB020011444FEAD0529D
:102670004FF07F4C1CEA410FA2EBD15318BF9CEAEC
:10268000026F4AD04FF0004C4CEA00204CEA012186
:1026900021FA03FCB0EB0C0C0FD412F0FE0F36D075
:1026A0005FEA4C001DD5001240EBC25038BF7047A6
:1026B0001CF03F0F18BF70470BE0A2F101025FEA68
:1026C0001C2040EBC25038BF70471CF07F0F18BF72
:1026D0007047C3F12003994014BF401E20F0010051
:1026E000704780084FEA122308BF7047B0FA80FC99
:1026F000A2EB0C02CCF1280C60FA0CF093EA122F3A
:1027000004BF00EBC25070474FEAC3707047130A12
:102710005FEADC1008BF7047F6E79CEA026F04D05E
:1027200010EA5C0F08BF0020704710B5FFF714FFD8
:1027300040DFF63E81F0004070473F065B4F666D1C
:102740007D077F6F00000000010203046C27000872
:10275000000000203800000028010008A42700081D
:1027600038000020E00600004401000800000000DE
:102770000000000000000000000000000000000059
:102780000000000000000000000000000100000048
:102790000000000001000000100000000000000028
:0427A0000024F4001D
:04000005080000ED02
:00000001FF
